:060000000A128A11EA2F2A
:100E2E0001340034F201F301F401F501F601F7018A
:100E3E00F001F1010800831603130C140B178B1726
:100E4E003C30831203138F00B0308E0090101012BE
:100E5E00901210140800831603138801F0308600D8
:100E6E0083120313880186010A128A1122270A129D
:100E7E008A1183120313061E672F78037904031D4C
:100E8E00672F0A128A1119270A128A112230831229
:100E9E00031388000930860074037504031D5B2F4D
:100EAE00213088000930860076037704031D632FF6
:100EBE00223088000930860072037304031D6B2FE5
:100ECE000230F8000030F900861E912F02307806AD
:100EDE007904031D912F0A128A1119270A128A11F9
:100EEE0014308312031388000930860074037504CE
:100EFE00031D852F0C308800093086007603770499
:100F0E00031D8D2F14308800093086007203730480
:100F1E00031D952F0330F8000030F900061FBB2F7C
:100F2E00033078067904031DBB2F0A128A11192784
:100F3E000A128A11A4308312031388000830860027
:100F4E0074037504031DAF2F6430880008308600CB
:100F5E0076037704031DB72FA4308800083086006F
:100F6E0072037304031DBF2F0430F8000030F90024
:100F7E00861FE52F043078067904031DE52F0A122B
:100F8E008A1119270A128A1124308312031388003A
:100F9E000530860074037504031DD92F2430880094
:100FAE000330860076037704031DE12F243088007A
:100FBE000530860072037304031D402F0130F800C4
:100FCE000030F900402FF001F101F201F301F401BC
:100FDE00F501F601F7010A128A1117270A128A1172
:100FEE00F8000A128A111827F90083010A128A11D1
:020FFE00322F90
:02400E00713F00
:00000001FF
