:060000000A128A11122809
:10000800FE00030EFA000408FB000A08FC00831235
:1000180003137F08FD000A128A112D280A128A117B
:100028001528F001F101F201F301F401F501F601DF
:10003800F701F801F901A001A101A201A301A4019E
:10004800A501A601A701A801A90183010A128A1125
:1000580099280C1C8E283C308F00B0308E0001305F
:10006800F0070318F10A0030F1070130F20703180E
:10007800F30A0030F3070130F4070318F50A0030DB
:10008800F5070130F6070318F70A0030F7070130C3
:10009800F8070318F90A0030F9070A3070067104E6
:1000A800031D5D2820032104031D5D280810A001FD
:1000B800A1010A3072067304031D69282203230470
:1000C800031D69288810A201A3010A30740675046B
:1000D800031D752824032504031D75280811A40190
:1000E800A5010A3076067704031D81282603270414
:1000F800031D81288811A601A7010A307806790412
:10010800031D8D2828032904031D8D280812A80122
:10011800A9010C107D08FF007C088A007B08840078
:100128007A0E8300FE0E7E0E0900FF30831603133D
:10013800860088018312031388010A128A11D620C7
:100148000A128A1183120313061CB128F001F10167
:100158000130A0000030A1000814861CBA28F20162
:10016800F3010130A2000030A3008814061DC32843
:10017800F401F5010130A4000030A5000815861D22
:10018800CC28F601F7010130A6000030A700881539
:10019800061EA628F801F9010130A8000030A900C0
:1001A8000816A628831603130C140B178B173C305C
:1001B800831203138F00B0308E009010101290122B
:0401C8001014080007
:02400E00723FFF
:00000001FF
